{
  "contractName": "Adoption",
  "abi": [
    {
      "constant": true,
      "inputs": [
        {
          "name": "",
          "type": "uint256"
        }
      ],
      "name": "adopters",
      "outputs": [
        {
          "name": "",
          "type": "address"
        }
      ],
      "payable": false,
      "stateMutability": "view",
      "type": "function"
    },
    {
      "constant": true,
      "inputs": [],
      "name": "owner",
      "outputs": [
        {
          "name": "",
          "type": "address"
        }
      ],
      "payable": false,
      "stateMutability": "view",
      "type": "function"
    },
    {
      "constant": true,
      "inputs": [
        {
          "name": "",
          "type": "uint256"
        }
      ],
      "name": "prices",
      "outputs": [
        {
          "name": "",
          "type": "uint256"
        }
      ],
      "payable": false,
      "stateMutability": "view",
      "type": "function"
    },
    {
      "inputs": [],
      "payable": false,
      "stateMutability": "nonpayable",
      "type": "constructor"
    },
    {
      "constant": false,
      "inputs": [
        {
          "name": "petId",
          "type": "uint256"
        }
      ],
      "name": "adopt",
      "outputs": [
        {
          "name": "",
          "type": "uint256"
        }
      ],
      "payable": true,
      "stateMutability": "payable",
      "type": "function"
    },
    {
      "constant": true,
      "inputs": [],
      "name": "getAdopters",
      "outputs": [
        {
          "name": "",
          "type": "address[16]"
        },
        {
          "name": "",
          "type": "uint256[16]"
        }
      ],
      "payable": false,
      "stateMutability": "view",
      "type": "function"
    },
    {
      "constant": false,
      "inputs": [],
      "name": "withdraw",
      "outputs": [],
      "payable": false,
      "stateMutability": "nonpayable",
      "type": "function"
    }
  ],
  "bytecode": "0x608060405234801561001057600080fd5b5060008090505b60108110156100475766038d7ea4c6800060108260108110151561003757fe5b0181905550806001019050610017565b5061056d806100576000396000f3fe608060405260043610610078576000357c0100000000000000000000000000000000000000000000000000000000900463ffffffff1680633ccfd60b1461007d5780633de4eb171461009457806343ae80d3146101165780638588b2c5146101915780638da5cb5b146101d3578063bc31c1c11461022a575b600080fd5b34801561008957600080fd5b50610092610279565b005b3480156100a057600080fd5b506100a96102d9565b6040518083601060200280838360005b838110156100d45780820151818401526020810190506100b9565b5050505090500182601060200280838360005b838110156101025780820151818401526020810190506100e7565b505050509050019250505060405180910390f35b34801561012257600080fd5b5061014f6004803603602081101561013957600080fd5b81019080803590602001909291905050506103a9565b604051808273ffffffffffffffffffffffffffffffffffffffff1673ffffffffffffffffffffffffffffffffffffffff16815260200191505060405180910390f35b6101bd600480360360208110156101a757600080fd5b81019080803590602001909291905050506103de565b6040518082815260200191505060405180910390f35b3480156101df57600080fd5b506101e86104b9565b604051808273ffffffffffffffffffffffffffffffffffffffff1673ffffffffffffffffffffffffffffffffffffffff16815260200191505060405180910390f35b34801561023657600080fd5b506102636004803603602081101561024d57600080fd5b81019080803590602001909291905050506104df565b6040518082815260200191505060405180910390f35b3373ffffffffffffffffffffffffffffffffffffffff166108fc3073ffffffffffffffffffffffffffffffffffffffff16319081150290604051600060405180830381858888f193505050501580156102d6573d6000803e3d6000fd5b50565b6102e16104f9565b6102e961051d565b600060108160108060200260405190810160405280929190826010801561035b576020028201915b8160009054906101000a900473ffffffffffffffffffffffffffffffffffffffff1673ffffffffffffffffffffffffffffffffffffffff1681526020019060010190808311610311575b505050505091508060108060200260405190810160405280929190826010801561039a576020028201915b815481526020019060010190808311610386575b50505050509050915091509091565b6000816010811015156103b857fe5b016000915054906101000a900473ffffffffffffffffffffffffffffffffffffffff1681565b60008082101580156103f15750600f8211155b15156103fc57600080fd5b60108260108110151561040b57fe5b0154341015151561041b57600080fd5b607860108360108110151561042c57fe5b0160008282540292505081905550606460108360108110151561044b57fe5b01600082825481151561045a57fe5b04925050819055503360008360108110151561047257fe5b0160006101000a81548173ffffffffffffffffffffffffffffffffffffffff021916908373ffffffffffffffffffffffffffffffffffffffff160217905550819050919050565b602060009054906101000a900473ffffffffffffffffffffffffffffffffffffffff1681565b6010816010811015156104ee57fe5b016000915090505481565b61020060405190810160405280601090602082028038833980820191505090505090565b6102006040519081016040528060109060208202803883398082019150509050509056fea165627a7a72305820963846a54ec3244a487821f33a370d701ccb0ab851d4c122c0fa3ec2a783a8550029",
  "source": "pragma solidity ^0.5.0;\n\ncontract Adoption {\n  address[16] public adopters;\n  uint[16] public prices;\n\n  constructor() public {\n    for (uint i=0;i<16;++i) {\n      prices[i] = 0.001 ether;  \n    }\n  }\n\n  // Adopting a pet\n  function adopt(uint petId) public payable returns (uint) {\n    require(petId >= 0 && petId <= 15);\n    require(msg.value >= prices[petId]);\n\n    prices[petId] *= 120;\n    prices[petId] /= 100;\n\n    adopters[petId] = msg.sender;\n    return petId;\n  }\n\n  // Retrieving the adopters\n  function getAdopters() public view returns (address[16] memory, uint[16] memory) {\n    return (adopters,  prices);\n  }\n  address public owner;\n  modifier onlyOwner() {\n        require (msg.sender != owner);\n        _;\n      }\n  function withdraw() public {\n    msg.sender.transfer(address(this).balance);\n  }\n}",
  "sourcePath": "/Users/dab/pet-shop-tutorial/contracts/Adoption.sol",
  "compiler": {
    "name": "solc",
    "version": "0.5.0+commit.1d4f565a.Emscripten.clang"
  },
  "schemaVersion": "3.0.9",
  "updatedAt": "2019-05-24T06:05:57.347Z",
  "devdoc": {
    "methods": {}
  },
  "userdoc": {
    "methods": {}
  }
}